:100000000C945D000C9485000C9485000C94850084
:100010000C9485000C9485000C9485000C9485004C
:100020000C9485000C9485000C9485000C94A0031E
:100030000C9485000C9485000C9485000C9485002C
:100040000C94FE020C9485000C946E030C944803EF
:100050000C9485000C9485000C9485000C9485000C
:100060000C9485000C9485000000000024002700FB
:100070002A0000000000250028002B0004040404CE
:100080000404040402020202020203030303030342
:10009000010204081020408001020408102001021F
:1000A00004081020000000080002010000030407FB
:1000B0000000000000000000770411241FBECFEFF5
:1000C000D8E0DEBFCDBF11E0A0E0B1E0EAE4FCE0A3
:1000D00002C005900D92A231B107D9F721E0A2E14B
:1000E000B1E001C01D92A73EB207E1F710E0CDE5F7
:1000F000D0E004C02197FE010E941D06CC35D10737
:10010000C9F70E94AF040C9423060C940000E09100
:10011000E101EC3088F54091E20128E830E0241B51
:10012000310947FD3395220F331F220F331F8217EA
:10013000930784F04091E30128E532E0241B310964
:1001400047FD3395220F331F220F331F821793076A
:100150000CF49C0122503109220F331F4FB7F89441
:100160008E2F90E0FC01EE0FFF1FE80FF91FE35EFA
:10017000FE4F328321834FBF089590E0FC01EC5580
:10018000FF4F2491FC01E057FF4F3491FC01E458EC
:10019000FF4FE491EE23C9F0222339F0233001F11F
:1001A000A8F4213019F1223029F1F0E0EE0FFF1F01
:1001B000EE58FF4FA591B4918FB7F894EC9161116F
:1001C00026C030953E233C938FBF08952730A9F079
:1001D0002830C9F0243049F7809180008F7D03C01A
:1001E000809180008F7780938000DFCF84B58F77F8
:1001F00084BDDBCF84B58F7DFBCF8091B0008F773E
:100200008093B000D2CF8091B0008F7DF9CF3E2B8C
:10021000DACFCF93DF9390E0FC01E057FF4F2491BA
:1002200084589F4FFC0184918823D1F090E0880F7F
:10023000991FFC01E859FF4FA591B491FC01EE58BC
:10024000FF4FC591D49161110EC09FB7F8948C9166
:10025000E22FE0958E238C932881E223E8839FBFD1
:10026000DF91CF9108958FB7F894EC91E22BEC9346
:100270008FBFF6CF3FB7F8948091190190911A0182
:10028000A0911B01B0911C0126B5A89B05C02F3F72
:1002900019F00196A11DB11D3FBFBA2FA92F982FAC
:1002A0008827BC01CD01620F711D811D911D42E0A7
:1002B000660F771F881F991F4A95D1F708958F926F
:1002C0009F92AF92BF92CF92DF92EF92FF920E94E5
:1002D0003A014B015C0188EEC82E83E0D82EE12C58
:1002E000F12C0E943A01681979098A099B09683E34
:1002F000734081059105A8F321E0C21AD108E108F5
:10030000F10888EE880E83E0981EA11CB11CC11470
:10031000D104E104F10429F7FF90EF90DF90CF9032
:10032000BF90AF909F908F900895AF92BF92CF9261
:10033000DF92EF92FF920F931F93CF93DF936C01A5
:100340007B018B01040F151FEB015E01AE18BF0886
:10035000C017D10759F06991D601ED91FC91019038
:10036000F081E02DC6010995892B79F7C501DF9150
:10037000CF911F910F91FF90EF90DF90CF90BF90A2
:10038000AF900895FC01538D448D252F30E0842FCC
:1003900090E0821B930B541710F0CF9608950197AD
:1003A0000895FC01918D828D981761F0A28DAE0F9A
:1003B000BF2FB11D5D968C91928D9F5F9F73928F21
:1003C00090E008958FEF9FEF0895FC01918D828D4D
:1003D000981731F0828DE80FF11D858D90E008951A
:1003E0008FEF9FEF0895FC01918D228D892F90E072
:1003F000805C9F4F821B91098F739927089581E438
:1004000091E00E94F30121E0892B09F420E0822F82
:10041000089580E090E0892B29F00E94FF0181116E
:100420000C9400000895FC01A48DA80FB92FB11DF4
:10043000A35ABF4F2C91848D90E001968F7399271A
:10044000848FA689B7892C93A089B1898C918370F8
:1004500080648C93938D848D981306C00288F389F1
:10046000E02D80818F7D80830895EF92FF920F931E
:100470001F93CF93DF93EC0181E0888F9B8D8C8D50
:1004800098131AC0E889F989808185FF15C09FB744
:10049000F894EE89FF896083E889F9898081837007
:1004A000806480839FBF81E090E0DF91CF911F91B6
:1004B0000F91FF90EF900895F62E0B8D10E00F5FD7
:1004C0001F4F0F731127E02E8C8D8E110CC00FB6AD
:1004D00007FCFACFE889F989808185FFF5CFCE0145
:1004E0000E941302F1CFEB8DEC0FFD2FF11DE35AAB
:1004F000FF4FF0829FB7F8940B8FEA89FB898081C8
:100500008062CFCFCF93DF93EC01888D8823B9F041
:10051000AA89BB89E889F9898C9185FD03C080810E
:1005200086FD0DC00FB607FCF7CF8C9185FFF2CF8B
:10053000808185FFEDCFCE010E941302E9CFDF91CC
:10054000CF9108951F93CF93DF93EC01162F8881ED
:100550008C3008F04EC061E0812F0E940901888133
:10056000282F30E0F901EE0FFF1FE20FF31FE35ECB
:10057000FE4F1F736081607C612B608319821A8239
:100580002CE0622F0E941106829FB001112430E0FE
:1005900020E0AB01420F531FFA01EE0FFF1FE40FE3
:1005A000F51FE35EFE4F908196FD16C02F5F3F4F13
:1005B0002C30310571F781110FC01092800082E05C
:1005C000809381001092850010928400B19A8091EE
:1005D0006F00826080936F00E8818E2F90E0FC01B5
:1005E000EE0FFF1FE80FF91FE35EFE4F808180646E
:1005F00080838881DF91CF911F9108951F920F9280
:100600000FB60F9211242F933F938F939F93AF9325
:10061000BF938091150190911601A0911701B0919F
:1006200018013091140123E0230F2D3758F501965E
:10063000A11DB11D20931401809315019093160103
:10064000A0931701B09318018091190190911A019C
:10065000A0911B01B0911C010196A11DB11D8093B9
:10066000190190931A01A0931B01B0931C01BF9133
:10067000AF919F918F913F912F910F900FBE0F904F
:100680001F90189526E8230F0296A11DB11DD2CF09
:100690001F920F920FB60F9211242F933F934F93F7
:1006A0005F936F937F938F939F93AF93BF93EF93DA
:1006B000FF9381E491E00E941302FF91EF91BF91BB
:1006C000AF919F918F917F916F915F914F913F91EA
:1006D0002F910F900FBE0F901F9018951F920F92A1
:1006E0000FB60F9211242F938F939F93EF93FF9345
:1006F000E0915101F09152018081E0915701F09118
:10070000580182FD1BC0908180915A018F5F8F73C9
:1007100020915B01821741F0E0915A01F0E0EF5B1C
:10072000FE4F958F80935A01FF91EF919F918F918A
:100730002F910F900FBE0F901F9018958081F4CFCE
:100740001F920F920FB60F9211242F933F934F9346
:100750005F936F937F938F939F93AF93BF93CF9349
:10076000DF93EF93FF9380911201C0911301D0E0CA
:1007700087FF24C01092850010928400809112019E
:100780008F5F8093120180911201082E000C990B4B
:100790008C179D0724F4809112018C30C4F1809154
:1007A000840090918500049680349C4908F47AC0B6
:1007B0008091840090918500049676C0809112010A
:1007C000082E000C990B8C179D07C4F6E0911201BE
:1007D0008E2FEE0F990BFC01EE0FFF1FE80FF91F94
:1007E000E35EFE4F808186FFC9CFE09112018E2F1C
:1007F000EE0F990BFC01EE0FFF1FE80FF91FE35EF0
:10080000FE4F808160E08F730E94BD00B7CF2091C2
:10081000840030918500E09112018E2FEE0F990B2C
:10082000FC01EE0FFF1FE80FF91FE35EFE4F818111
:100830009281820F931F9093890080938800E091AA
:1008400012018E2FEE0F990BFC01EE0FFF1FE80F28
:10085000F91FE35EFE4F808186FF11C0E091120117
:100860008E2FEE0F990BFC01EE0FFF1FE80FF91F03
:10087000E35EFE4F808161E08F730E94BD00FF91B7
:10088000EF91DF91CF91BF91AF919F918F917F9128
:100890006F915F914F913F912F910F900FBE0F90ED
:1008A0001F90189580E49CE99093890080938800BC
:1008B0008FEF80931201E3CFFC01909113019C30E4
:1008C00098F481E0890F809313019083892F90E041
:1008D000FC01EE0FFF1FE80FF91FE35EFE4F88EBF0
:1008E0009BE09283818308958FEF80830895E1E4F4
:1008F000F1E01382128288EE93E0A0E0B0E08483FE
:100900009583A683B78384E091E09183808385EC0F
:1009100090E09587848784EC90E09787868780ECC9
:1009200090E0918B808B81EC90E0938B828B82ECBA
:1009300090E0958B848B86EC90E0978B868B118E64
:10094000128E138E148E84EE91E00E945C0481EE70
:1009500091E00E945C048EED91E00C945C0478942C
:1009600084B5826084BD84B5816084BD85B58260B4
:1009700085BD85B5816085BD80916E008160809365
:100980006E001092810080918100826080938100CE
:1009900080918100816080938100809180008160DE
:1009A000809380008091B10084608093B100809139
:1009B000B00081608093B00080917A008460809361
:1009C0007A0080917A00826080937A0080917A0028
:1009D000816080937A0080917A00806880937A00A9
:1009E0001092C100E0915101F091520182E08083A8
:1009F000E0914D01F0914E011082E0914F01F09194
:100A000050018FEC808310925901E0915501F091D3
:100A1000560186E08083E0915301F091540180817A
:100A200080618083E0915301F0915401808188605E
:100A30008083E0915301F09154018081806880832C
:100A4000E0915301F091540180818F7D808361E0BA
:100A50008BE00E9409016BE070E084EE91E00E945F
:100A6000A20261E08AE00E9409016AE070E081EE82
:100A700091E00E94A20261E089E00E94090169E020
:100A800070E08EED91E00E94A20260E082E00E94A0
:100A9000090160E083E00E94090161E087E00E94B3
:100AA000090160E087E00E94BD0060E088E00E94EC
:100AB0000901C8E8D0E008E512E034EB432E512CE0
:100AC000612C712C40E0A42E40E0B42E8091E20114
:100AD0006E01C81AD10887FDD394CC0CDD1CCC0C58
:100AE000DD1C0D2C000CEE08FF088091E30198013D
:100AF000281B310987FD3395220F331F220F331F27
:100B0000032E000C440B550B2C193D094E095F09AF
:100B1000AAE5B0E00E94D505A30192010E94B605A6
:100B2000DA01C9018C0D9D1DAE1DBF1D0E948700FD
:100B30000E945F018091E2019E01281B310987FD1F
:100B40003395C901880F991F880F991F0E9487004C
:100B50000E945F01A114B10409F4B8CF0E94FF0103
:100B6000882309F4B3CF0E940000B0CF052E97FB75
:100B70001EF400940E94CD0557FD07D00E94E005A9
:100B800007FC03D04EF40C94CD055095409530955C
:100B900021953F4F4F4F5F4F0895909580957095E9
:100BA00061957F4F8F4F9F4F08950E940206A59F2A
:100BB000900DB49F900DA49F800D911D1124089558
:100BC000A1E21A2EAA1BBB1BFD010DC0AA1FBB1F51
:100BD000EE1FFF1FA217B307E407F50720F0A21BC3
:100BE000B30BE40BF50B661F771F881F991F1A9430
:100BF00069F760957095809590959B01AC01BD015A
:100C0000CF010895A29FB001B39FC001A39F700DB3
:100C1000811D1124911DB29F700D811D1124911D04
:100C20000895991B79E004C0991F961708F0961B48
:100C3000881F7A95C9F780950895EE0FFF1F0590DC
:0A0C4000F491E02D0994F894FFCF21
:100C4A000000000035029501C2018202F301D101C0
:020C5A00E501B2
:00000001FF
