:100000000C945D000C9485000C9485000C94850084
:100010000C9485000C9485000C9485000C9485004C
:100020000C9485000C9485000C9485000C94480376
:100030000C9485000C9485000C9485000C9485002C
:100040000C94A6020C9485000C9416030C94F002F8
:100050000C9485000C9485000C9485000C9485000C
:100060000C9485000C94850000000008000201003B
:100070000003040700000000000000000000000072
:10008000250028002B0000000000240027002A0083
:10009000040404040404040402020202020203032E
:1000A0000303030301020408102040800102040836
:1000B0001020010204081020040411241FBECFEFF9
:1000C000D8E0DEBFCDBF11E0A0E0B1E0E6EDFBE09F
:1000D00002C005900D92AA31B107D9F721E0AAE13B
:1000E000B1E001C01D92AC3EB207E1F710E0CDE5F2
:1000F000D0E004C02197FE010E94E305CC35D10772
:10010000C9F70E947B040C94E9050C94000090E070
:10011000FC01EC55FF4F249180579F4FFC018491C7
:10012000882399F090E0880F991FFC01EA57FF4F50
:10013000A591B491FC01E458FF4F859194918FB73C
:10014000F894EC91E22BEC938FBF0895E091E901D4
:10015000EC3088F54091EA0128E830E0241B3109B1
:1001600047FD3395220F331F220F331F821793074A
:1001700084F04091EB0128E532E0241B310947FD72
:100180003395220F331F220F331F821793070CF46E
:100190009C0122503109220F331F4FB7F8948E2F44
:1001A00090E0FC01EE0FFF1FE80FF91FEF53FE4F29
:1001B000328321834FBF089590E0FC01E859FF4F3F
:1001C0002491FC01EC55FF4F3491FC01E057FF4FA7
:1001D000E491EE23C9F0222339F0233001F1A8F491
:1001E000213019F1223029F1F0E0EE0FFF1FE45821
:1001F000FF4FA591B4918FB7F894EC91611126C08F
:1002000030953E233C938FBF08952730A9F02830C6
:10021000C9F0243049F7809180008F7D03C0809120
:1002200080008F7780938000DFCF84B58F7784BD87
:10023000DBCF84B58F7DFBCF8091B0008F7780932B
:10024000B000D2CF8091B0008F7DF9CF3E2BDACFB6
:100250003FB7F8948091200190912101A091220153
:10026000B091230126B5A89B05C02F3F19F0019638
:10027000A11DB11D3FBFBA2FA92F982F8827BC0100
:10028000CD01620F711D811D911D42E0660F771F28
:10029000881F991F4A95D1F708958F929F92AF9228
:1002A000BF92CF92DF92EF92FF924B015C010E94CE
:1002B00028016B017C010E9428016C197D098E09BF
:1002C0009F09683E734081059105A8F321E0821AD9
:1002D0009108A108B10888EEC80E83E0D81EE11C81
:1002E000F11C81149104A104B10429F7FF90EF904F
:1002F000DF90CF90BF90AF909F908F900895AF9276
:10030000BF92CF92DF92EF92FF920F931F93CF9302
:10031000DF936C017B018B01040F151FEB015E0164
:10032000AE18BF08C017D10759F06991D601ED91F9
:10033000FC910190F081E02DC6010995892B79F798
:10034000C501DF91CF911F910F91FF90EF90DF904A
:10035000CF90BF90AF900895FC01538D448D252F11
:1003600030E0842F90E0821B930B541710F0CF964F
:10037000089501970895FC01918D828D981761F081
:10038000A28DAE0FBF2FB11D5D968C91928D9F5F98
:100390009F73928F90E008958FEF9FEF0895FC0177
:1003A000918D828D981731F0828DE80FF11D858D2A
:1003B00090E008958FEF9FEF0895FC01918D228DBD
:1003C000892F90E0805C9F4F821B91098F73992742
:1003D000089584E291E00E94DD0121E0892B09F477
:1003E00020E0822F089580E090E0892B29F00E9480
:1003F000E90181110C9400000895FC01A48DA80F5F
:10040000B92FB11DA35ABF4F2C91848D90E0019656
:100410008F739927848FA689B7892C93A089B18976
:100420008C91837080648C93938D848D981306C017
:100430000288F389E02D80818F7D80830895EF927B
:10044000FF920F931F93CF93DF93EC0181E0888F8E
:100450009B8D8C8D98131AC0E889F989808185FF5E
:1004600015C09FB7F894EE89FF896083E889F98900
:1004700080818370806480839FBF81E090E0DF9102
:10048000CF911F910F91FF90EF900895F62E0B8D55
:1004900010E00F5F1F4F0F731127E02E8C8D8E1110
:1004A0000CC00FB607FCFACFE889F989808185FF77
:1004B000F5CFCE010E94FD01F1CFEB8DEC0FFD2FAA
:1004C000F11DE35AFF4FF0829FB7F8940B8FEA8932
:1004D000FB8980818062CFCFCF93DF93EC01888D41
:1004E0008823B9F0AA89BB89E889F9898C9185FDAF
:1004F00003C0808186FD0DC00FB607FCF7CF8C913D
:1005000085FFF2CF808185FFEDCFCE010E94FD01F6
:10051000E9CFDF91CF910895892B79F41092800073
:1005200082E0809381001092850010928400B19A3D
:1005300080916F00826080936F00089542E050E0E8
:1005400062E171E084E291E00C947F011F920F92CE
:100550000FB60F9211242F933F938F939F93AF93D6
:10056000BF9380911C0190911D01A0911E01B0913B
:100570001F0130911B0123E0230F2D3758F5019601
:10058000A11DB11D20931B0180931C0190931D019F
:10059000A0931E01B0931F01809120019091210131
:1005A000A0912201B09123010196A11DB11D80935C
:1005B000200190932101A0932201B0932301BF91C8
:1005C000AF919F918F913F912F910F900FBE0F9000
:1005D0001F90189526E8230F0296A11DB11DD2CFBA
:1005E0001F920F920FB60F9211242F933F934F93A8
:1005F0005F936F937F938F939F93AF93BF93EF938B
:10060000FF9384E291E00E94FD01FF91EF91BF9181
:10061000AF919F918F917F916F915F914F913F919A
:100620002F910F900FBE0F901F9018951F920F9251
:100630000FB60F9211242F938F939F93EF93FF93F5
:10064000E0913401F09135018081E0913A01F0911F
:100650003B0182FD1BC0908180913D018F5F8F73B4
:1006600020913E01821741F0E0913D01F0E0EC5D08
:10067000FE4F958F80933D01FF91EF919F918F9158
:100680002F910F900FBE0F901F9018958081F4CF7F
:100690001F920F920FB60F9211242F933F934F93F7
:1006A0005F936F937F938F939F93AF93BF93CF93FA
:1006B000DF93EF93FF9380911A01C091E501D0E0A1
:1006C00087FF24C0109285001092840080911A0147
:1006D0008F5F80931A0180911A01082E000C990BEC
:1006E0008C179D0724F480911A018C30C4F18091FD
:1006F000840090918500049680349C4908F47AC067
:100700008091840090918500049676C080911A01B2
:10071000082E000C990B8C179D07C4F6E0911A0166
:100720008E2FEE0F990BFC01EE0FFF1FE80FF91F44
:10073000EF53FE4F808186FFC9CFE0911A018E2FC3
:10074000EE0F990BFC01EE0FFF1FE80FF91FEF539F
:10075000FE4F808160E08F730E94DC00B7CF209154
:10076000840030918500E0911A018E2FEE0F990BD5
:10077000FC01EE0FFF1FE80FF91FEF53FE4F8181C1
:100780009281820F931F9093890080938800E0915B
:100790001A018E2FEE0F990BFC01EE0FFF1FE80FD1
:1007A000F91FEF53FE4F808186FF11C0E0911A01BF
:1007B0008E2FEE0F990BFC01EE0FFF1FE80FF91FB4
:1007C000EF53FE4F808161E08F730E94DC00FF9148
:1007D000EF91DF91CF91BF91AF919F918F917F91D9
:1007E0006F915F914F913F912F910F900FBE0F909E
:1007F0001F90189580E49CE990938900809388006D
:100800008FEF80931A01E3CF1092270110922601F7
:1008100088EE93E0A0E0B0E0809328019093290156
:10082000A0932A01B0932B0184E091E090932501DD
:100830008093240185EC90E0909331018093300106
:1008400084EC90E0909333018093320180EC90E04F
:10085000909335018093340181EC90E090933701BF
:100860008093360182EC90E09093390180933801B7
:1008700086EC90E090933B0180933A0110923D0109
:1008800010923E0110923F01109240018091E501CB
:100890008C3048F591E0980F9093E5018093E90141
:1008A00090E0FC01EE0FFF1FE80FF91FEF53FE4F22
:1008B00088EB9BE0928381838091E5018C30B8F4D2
:1008C00091E0980F9093E5018093E60190E0FC01A0
:1008D000EE0FFF1FE80FF91FEF53FE4F88EB9BE071
:1008E0009283818308958FEF8093E901E5CF8FEFA5
:1008F0008093E6010895789484B5826084BD84B5C0
:10090000816084BD85B5826085BD85B5816085BD0A
:1009100080916E00816080936E00109281008091C2
:10092000810082608093810080918100816080934A
:100930008100809180008160809380008091B1006F
:1009400084608093B1008091B00081608093B0009A
:1009500080917A00846080937A0080917A0082602E
:1009600080937A0080917A00816080937A008091F0
:100970007A00806880937A001092C100E09134017F
:10098000F091350182E08083E0913001F0913101F6
:100990001082E0913201F09133018FEC808310924C
:1009A0003C01E0913801F091390186E08083E091CB
:1009B0003601F0913701808180618083E0913601BA
:1009C000F0913701808188608083E0913601F09159
:1009D0003701808180688083E0913601F091370192
:1009E00080818F7D80838BE00E9487008091E90168
:1009F0008C3008F042C08BE00E9487008091E901B2
:100A0000282F30E0F901EE0FFF1FE20FF31FEF5325
:100A1000FE4F9081907C9B6090831092EA0110922F
:100A2000EB012CE0622F0E94D70590E0829FB0017D
:100A3000112430E020E0AB01420F531FFA01EE0F0A
:100A4000FF1FE40FF51FEF53FE4F408146FD07C027
:100A50002F5F3F4F2C30310571F70E948C02E091DF
:100A6000E9018E2F90E0FC01EE0FFF1FE80FF91F48
:100A7000EF53FE4F8081806480838AE00E9487006C
:100A80008091E6018C3008F042C08AE00E94870025
:100A90008091E601282F30E0F901EE0FFF1FE20FF1
:100AA000F31FEF53FE4F9081907C9A6090831092D9
:100AB000E7011092E8012CE0622F0E94D70590E038
:100AC000829FB001112430E020E0AB01420F531FA0
:100AD000FA01EE0FFF1FE40FF51FEF53FE4F4081A9
:100AE00046FD07C02F5F3F4F2C30310571F70E9444
:100AF0008C02E091E6018E2F90E0FC01EE0FFF1FCB
:100B0000E80FF91FEF53FE4F808180648083C8E8AF
:100B1000D0E008E512E040E0E42E40E0F42E8091C1
:100B2000EA019E01281B310987FD3395C901880F11
:100B3000991F880F991F0E94A60041E050E067E1CD
:100B400071E084E291E00E947F010E949E0268EBC6
:100B50007BE080E090E00E944D018091EB019801E4
:100B6000281B310987FD3395C901880F991F880F0C
:100B7000991F0E94A60043E050E065E171E084E225
:100B800091E00E947F010E949E0260ED77E080E08C
:100B900090E00E944D01E114F10409F4C0CF0E94DD
:100BA000E901882309F4BBCF0E940000B8CF991B4C
:100BB00079E004C0991F961708F0961B881F7A9554
:100BC000C9F780950895EE0FFF1F0590F491E02D71
:060BD0000994F894FFCF28
:100BD600000000001F027F01AC016C02DD01BB01B9
:0A0BE600CF010D0A00313830000085
:00000001FF
